{
  "_format": "hh-sol-artifact-1",
  "contractName": "Akari",
  "sourceName": "contracts/Akari.sol",
  "abi": [
    {
      "inputs": [],
      "stateMutability": "nonpayable",
      "type": "constructor"
    },
    {
      "inputs": [],
      "name": "ApprovalCallerNotOwnerNorApproved",
      "type": "error"
    },
    {
      "inputs": [],
      "name": "ApprovalQueryForNonexistentToken",
      "type": "error"
    },
    {
      "inputs": [],
      "name": "BalanceQueryForZeroAddress",
      "type": "error"
    },
    {
      "inputs": [],
      "name": "MintERC2309QuantityExceedsLimit",
      "type": "error"
    },
    {
      "inputs": [],
      "name": "MintToZeroAddress",
      "type": "error"
    },
    {
      "inputs": [],
      "name": "MintZeroQuantity",
      "type": "error"
    },
    {
      "inputs": [],
      "name": "OwnerQueryForNonexistentToken",
      "type": "error"
    },
    {
      "inputs": [],
      "name": "OwnershipNotInitializedForExtraData",
      "type": "error"
    },
    {
      "inputs": [],
      "name": "TransferCallerNotOwnerNorApproved",
      "type": "error"
    },
    {
      "inputs": [],
      "name": "TransferFromIncorrectOwner",
      "type": "error"
    },
    {
      "inputs": [],
      "name": "TransferToNonERC721ReceiverImplementer",
      "type": "error"
    },
    {
      "inputs": [],
      "name": "TransferToZeroAddress",
      "type": "error"
    },
    {
      "inputs": [],
      "name": "URIQueryForNonexistentToken",
      "type": "error"
    },
    {
      "anonymous": false,
      "inputs": [
        {
          "indexed": true,
          "internalType": "address",
          "name": "owner",
          "type": "address"
        },
        {
          "indexed": true,
          "internalType": "address",
          "name": "approved",
          "type": "address"
        },
        {
          "indexed": true,
          "internalType": "uint256",
          "name": "tokenId",
          "type": "uint256"
        }
      ],
      "name": "Approval",
      "type": "event"
    },
    {
      "anonymous": false,
      "inputs": [
        {
          "indexed": true,
          "internalType": "address",
          "name": "owner",
          "type": "address"
        },
        {
          "indexed": true,
          "internalType": "address",
          "name": "operator",
          "type": "address"
        },
        {
          "indexed": false,
          "internalType": "bool",
          "name": "approved",
          "type": "bool"
        }
      ],
      "name": "ApprovalForAll",
      "type": "event"
    },
    {
      "anonymous": false,
      "inputs": [
        {
          "indexed": true,
          "internalType": "uint256",
          "name": "fromTokenId",
          "type": "uint256"
        },
        {
          "indexed": false,
          "internalType": "uint256",
          "name": "toTokenId",
          "type": "uint256"
        },
        {
          "indexed": true,
          "internalType": "address",
          "name": "from",
          "type": "address"
        },
        {
          "indexed": true,
          "internalType": "address",
          "name": "to",
          "type": "address"
        }
      ],
      "name": "ConsecutiveTransfer",
      "type": "event"
    },
    {
      "anonymous": false,
      "inputs": [
        {
          "indexed": true,
          "internalType": "address",
          "name": "previousOwner",
          "type": "address"
        },
        {
          "indexed": true,
          "internalType": "address",
          "name": "newOwner",
          "type": "address"
        }
      ],
      "name": "OwnershipTransferred",
      "type": "event"
    },
    {
      "anonymous": false,
      "inputs": [
        {
          "indexed": true,
          "internalType": "address",
          "name": "from",
          "type": "address"
        },
        {
          "indexed": true,
          "internalType": "address",
          "name": "to",
          "type": "address"
        },
        {
          "indexed": true,
          "internalType": "uint256",
          "name": "tokenId",
          "type": "uint256"
        }
      ],
      "name": "Transfer",
      "type": "event"
    },
    {
      "inputs": [
        {
          "internalType": "address",
          "name": "to",
          "type": "address"
        },
        {
          "internalType": "uint256",
          "name": "tokenId",
          "type": "uint256"
        }
      ],
      "name": "approve",
      "outputs": [],
      "stateMutability": "payable",
      "type": "function"
    },
    {
      "inputs": [
        {
          "internalType": "address",
          "name": "owner",
          "type": "address"
        }
      ],
      "name": "balanceOf",
      "outputs": [
        {
          "internalType": "uint256",
          "name": "",
          "type": "uint256"
        }
      ],
      "stateMutability": "view",
      "type": "function"
    },
    {
      "inputs": [],
      "name": "baseExtension",
      "outputs": [
        {
          "internalType": "string",
          "name": "",
          "type": "string"
        }
      ],
      "stateMutability": "view",
      "type": "function"
    },
    {
      "inputs": [
        {
          "internalType": "uint256",
          "name": "tokenId",
          "type": "uint256"
        }
      ],
      "name": "getApproved",
      "outputs": [
        {
          "internalType": "address",
          "name": "",
          "type": "address"
        }
      ],
      "stateMutability": "view",
      "type": "function"
    },
    {
      "inputs": [
        {
          "internalType": "address",
          "name": "owner",
          "type": "address"
        },
        {
          "internalType": "address",
          "name": "operator",
          "type": "address"
        }
      ],
      "name": "isApprovedForAll",
      "outputs": [
        {
          "internalType": "bool",
          "name": "",
          "type": "bool"
        }
      ],
      "stateMutability": "view",
      "type": "function"
    },
    {
      "inputs": [
        {
          "internalType": "address",
          "name": "to",
          "type": "address"
        },
        {
          "internalType": "uint256",
          "name": "tokenId",
          "type": "uint256"
        }
      ],
      "name": "mint",
      "outputs": [],
      "stateMutability": "payable",
      "type": "function"
    },
    {
      "inputs": [
        {
          "internalType": "address",
          "name": "",
          "type": "address"
        }
      ],
      "name": "minter",
      "outputs": [
        {
          "internalType": "uint256",
          "name": "",
          "type": "uint256"
        }
      ],
      "stateMutability": "view",
      "type": "function"
    },
    {
      "inputs": [],
      "name": "name",
      "outputs": [
        {
          "internalType": "string",
          "name": "",
          "type": "string"
        }
      ],
      "stateMutability": "view",
      "type": "function"
    },
    {
      "inputs": [],
      "name": "owner",
      "outputs": [
        {
          "internalType": "address",
          "name": "",
          "type": "address"
        }
      ],
      "stateMutability": "view",
      "type": "function"
    },
    {
      "inputs": [
        {
          "internalType": "uint256",
          "name": "tokenId",
          "type": "uint256"
        }
      ],
      "name": "ownerOf",
      "outputs": [
        {
          "internalType": "address",
          "name": "",
          "type": "address"
        }
      ],
      "stateMutability": "view",
      "type": "function"
    },
    {
      "inputs": [],
      "name": "renounceOwnership",
      "outputs": [],
      "stateMutability": "nonpayable",
      "type": "function"
    },
    {
      "inputs": [
        {
          "internalType": "address",
          "name": "from",
          "type": "address"
        },
        {
          "internalType": "address",
          "name": "to",
          "type": "address"
        },
        {
          "internalType": "uint256",
          "name": "tokenId",
          "type": "uint256"
        }
      ],
      "name": "safeTransferFrom",
      "outputs": [],
      "stateMutability": "payable",
      "type": "function"
    },
    {
      "inputs": [
        {
          "internalType": "address",
          "name": "from",
          "type": "address"
        },
        {
          "internalType": "address",
          "name": "to",
          "type": "address"
        },
        {
          "internalType": "uint256",
          "name": "tokenId",
          "type": "uint256"
        },
        {
          "internalType": "bytes",
          "name": "_data",
          "type": "bytes"
        }
      ],
      "name": "safeTransferFrom",
      "outputs": [],
      "stateMutability": "payable",
      "type": "function"
    },
    {
      "inputs": [
        {
          "internalType": "address",
          "name": "operator",
          "type": "address"
        },
        {
          "internalType": "bool",
          "name": "approved",
          "type": "bool"
        }
      ],
      "name": "setApprovalForAll",
      "outputs": [],
      "stateMutability": "nonpayable",
      "type": "function"
    },
    {
      "inputs": [
        {
          "internalType": "bytes4",
          "name": "interfaceId",
          "type": "bytes4"
        }
      ],
      "name": "supportsInterface",
      "outputs": [
        {
          "internalType": "bool",
          "name": "",
          "type": "bool"
        }
      ],
      "stateMutability": "view",
      "type": "function"
    },
    {
      "inputs": [],
      "name": "symbol",
      "outputs": [
        {
          "internalType": "string",
          "name": "",
          "type": "string"
        }
      ],
      "stateMutability": "view",
      "type": "function"
    },
    {
      "inputs": [],
      "name": "tokenCount",
      "outputs": [
        {
          "internalType": "uint256",
          "name": "",
          "type": "uint256"
        }
      ],
      "stateMutability": "view",
      "type": "function"
    },
    {
      "inputs": [
        {
          "internalType": "uint256",
          "name": "tokenId",
          "type": "uint256"
        }
      ],
      "name": "tokenURI",
      "outputs": [
        {
          "internalType": "string",
          "name": "",
          "type": "string"
        }
      ],
      "stateMutability": "view",
      "type": "function"
    },
    {
      "inputs": [],
      "name": "totalSupply",
      "outputs": [
        {
          "internalType": "uint256",
          "name": "",
          "type": "uint256"
        }
      ],
      "stateMutability": "view",
      "type": "function"
    },
    {
      "inputs": [
        {
          "internalType": "address",
          "name": "from",
          "type": "address"
        },
        {
          "internalType": "address",
          "name": "to",
          "type": "address"
        },
        {
          "internalType": "uint256",
          "name": "tokenId",
          "type": "uint256"
        }
      ],
      "name": "transferFrom",
      "outputs": [],
      "stateMutability": "payable",
      "type": "function"
    },
    {
      "inputs": [
        {
          "internalType": "address",
          "name": "newOwner",
          "type": "address"
        }
      ],
      "name": "transferOwnership",
      "outputs": [],
      "stateMutability": "nonpayable",
      "type": "function"
    },
    {
      "inputs": [
        {
          "internalType": "address",
          "name": "from",
          "type": "address"
        },
        {
          "internalType": "address",
          "name": "to",
          "type": "address"
        },
        {
          "internalType": "uint256",
          "name": "tokenId",
          "type": "uint256"
        }
      ],
      "name": "transferfrom",
      "outputs": [],
      "stateMutability": "nonpayable",
      "type": "function"
    }
  ],
  "bytecode": "0x608060405260405180602001604052806000815250600a90816200002491906200049d565b506040518060400160405280600581526020017f2e6a736f6e000000000000000000000000000000000000000000000000000000815250600b90816200006b91906200049d565b503480156200007957600080fd5b506040518060400160405280600581526020017f416b6172690000000000000000000000000000000000000000000000000000008152506040518060400160405280600581526020017f414b4152490000000000000000000000000000000000000000000000000000008152508160029081620000f791906200049d565b5080600390816200010991906200049d565b506200011a6200015060201b60201c565b600081905550505062000142620001366200015560201b60201c565b6200015d60201b60201c565b600060098190555062000584565b600090565b600033905090565b6000600860009054906101000a900473ffffffffffffffffffffffffffffffffffffffff16905081600860006101000a81548173ffffffffffffffffffffffffffffffffffffffff021916908373ffffffffffffffffffffffffffffffffffffffff1602179055508173ffffffffffffffffffffffffffffffffffffffff168173ffffffffffffffffffffffffffffffffffffffff167f8be0079c531659141344cd1fd0a4f28419497f9722a3daafe3b4186f6b6457e060405160405180910390a35050565b600081519050919050565b7f4e487b7100000000000000000000000000000000000000000000000000000000600052604160045260246000fd5b7f4e487b7100000000000000000000000000000000000000000000000000000000600052602260045260246000fd5b60006002820490506001821680620002a557607f821691505b602082108103620002bb57620002ba6200025d565b5b50919050565b60008190508160005260206000209050919050565b60006020601f8301049050919050565b600082821b905092915050565b600060088302620003257fffffffffffffffffffffffffffffffffffffffffffffffffffffffffffffffff82620002e6565b620003318683620002e6565b95508019841693508086168417925050509392505050565b6000819050919050565b6000819050919050565b60006200037e62000378620003728462000349565b62000353565b62000349565b9050919050565b6000819050919050565b6200039a836200035d565b620003b2620003a98262000385565b848454620002f3565b825550505050565b600090565b620003c9620003ba565b620003d68184846200038f565b505050565b5b81811015620003fe57620003f2600082620003bf565b600181019050620003dc565b5050565b601f8211156200044d576200041781620002c1565b6200042284620002d6565b8101602085101562000432578190505b6200044a6200044185620002d6565b830182620003db565b50505b505050565b600082821c905092915050565b6000620004726000198460080262000452565b1980831691505092915050565b60006200048d83836200045f565b9150826002028217905092915050565b620004a88262000223565b67ffffffffffffffff811115620004c457620004c36200022e565b5b620004d082546200028c565b620004dd82828562000402565b600060209050601f83116001811462000515576000841562000500578287015190505b6200050c85826200047f565b8655506200057c565b601f1984166200052586620002c1565b60005b828110156200054f5784890151825560018201915060208501945060208101905062000528565b868310156200056f57848901516200056b601f8916826200045f565b8355505b6001600288020188555050505b505050505050565b61247c80620005946000396000f3fe6080604052600436106101355760003560e01c806370a08231116100ab578063a22cb4651161006f578063a22cb465146103f2578063b88d4fde1461041b578063c668286214610437578063c87b56dd14610462578063e985e9c51461049f578063f2fde38b146104dc57610135565b806370a082311461031d578063715018a61461035a5780638da5cb5b1461037157806395d89b411461039c5780639f181b5e146103c757610135565b806323b872dd116100fd57806323b872dd146102265780633dd08c381461024257806340c10f191461027f57806342842e0e1461029b5780636352211e146102b757806363b0545f146102f457610135565b806301ffc9a71461013a57806306fdde0314610177578063081812fc146101a2578063095ea7b3146101df57806318160ddd146101fb575b600080fd5b34801561014657600080fd5b50610161600480360381019061015c9190611b17565b610505565b60405161016e9190611b5f565b60405180910390f35b34801561018357600080fd5b5061018c610597565b6040516101999190611c0a565b60405180910390f35b3480156101ae57600080fd5b506101c960048036038101906101c49190611c62565b610629565b6040516101d69190611cd0565b60405180910390f35b6101f960048036038101906101f49190611d17565b6106a8565b005b34801561020757600080fd5b506102106107ec565b60405161021d9190611d66565b60405180910390f35b610240600480360381019061023b9190611d81565b610803565b005b34801561024e57600080fd5b5061026960048036038101906102649190611dd4565b610b25565b6040516102769190611d66565b60405180910390f35b61029960048036038101906102949190611d17565b610b3d565b005b6102b560048036038101906102b09190611d81565b610b4b565b005b3480156102c357600080fd5b506102de60048036038101906102d99190611c62565b610b6b565b6040516102eb9190611cd0565b60405180910390f35b34801561030057600080fd5b5061031b60048036038101906103169190611d81565b610b7d565b005b34801561032957600080fd5b50610344600480360381019061033f9190611dd4565b610bb8565b6040516103519190611d66565b60405180910390f35b34801561036657600080fd5b5061036f610c70565b005b34801561037d57600080fd5b50610386610c84565b6040516103939190611cd0565b60405180910390f35b3480156103a857600080fd5b506103b1610cae565b6040516103be9190611c0a565b60405180910390f35b3480156103d357600080fd5b506103dc610d40565b6040516103e99190611d66565b60405180910390f35b3480156103fe57600080fd5b5061041960048036038101906104149190611e2d565b610d46565b005b61043560048036038101906104309190611fa2565b610e51565b005b34801561044357600080fd5b5061044c610ec4565b6040516104599190611c0a565b60405180910390f35b34801561046e57600080fd5b5061048960048036038101906104849190611c62565b610f52565b6040516104969190611c0a565b60405180910390f35b3480156104ab57600080fd5b506104c660048036038101906104c19190612025565b610fb4565b6040516104d39190611b5f565b60405180910390f35b3480156104e857600080fd5b5061050360048036038101906104fe9190611dd4565b611048565b005b60006301ffc9a760e01b827bffffffffffffffffffffffffffffffffffffffffffffffffffffffff1916148061056057506380ac58cd60e01b827bffffffffffffffffffffffffffffffffffffffffffffffffffffffff1916145b806105905750635b5e139f60e01b827bffffffffffffffffffffffffffffffffffffffffffffffffffffffff1916145b9050919050565b6060600280546105a690612094565b80601f01602080910402602001604051908101604052809291908181526020018280546105d290612094565b801561061f5780601f106105f45761010080835404028352916020019161061f565b820191906000526020600020905b81548152906001019060200180831161060257829003601f168201915b5050505050905090565b6000610634826110cb565b61066a576040517fcf4700e400000000000000000000000000000000000000000000000000000000815260040160405180910390fd5b6006600083815260200190815260200160002060000160009054906101000a900473ffffffffffffffffffffffffffffffffffffffff169050919050565b60006106b382610b6b565b90508073ffffffffffffffffffffffffffffffffffffffff166106d461112a565b73ffffffffffffffffffffffffffffffffffffffff161461073757610700816106fb61112a565b610fb4565b610736576040517fcfb3b94200000000000000000000000000000000000000000000000000000000815260040160405180910390fd5b5b826006600084815260200190815260200160002060000160006101000a81548173ffffffffffffffffffffffffffffffffffffffff021916908373ffffffffffffffffffffffffffffffffffffffff160217905550818373ffffffffffffffffffffffffffffffffffffffff168273ffffffffffffffffffffffffffffffffffffffff167f8c5be1e5ebec7d5bd14f71427d1e84f3dd0314c0f7b2291e5b200ac8c7c3b92560405160405180910390a4505050565b60006107f6611132565b6001546000540303905090565b600061080e82611137565b90508373ffffffffffffffffffffffffffffffffffffffff168173ffffffffffffffffffffffffffffffffffffffff1614610875576040517fa114810000000000000000000000000000000000000000000000000000000000815260040160405180910390fd5b60008061088184611203565b91509150610897818761089261112a565b61122a565b6108e3576108ac866108a761112a565b610fb4565b6108e2576040517f59c896be00000000000000000000000000000000000000000000000000000000815260040160405180910390fd5b5b600073ffffffffffffffffffffffffffffffffffffffff168573ffffffffffffffffffffffffffffffffffffffff1603610949576040517fea553b3400000000000000000000000000000000000000000000000000000000815260040160405180910390fd5b610956868686600161126e565b801561096157600082555b600560008773ffffffffffffffffffffffffffffffffffffffff1673ffffffffffffffffffffffffffffffffffffffff168152602001908152602001600020600081546001900391905081905550600560008673ffffffffffffffffffffffffffffffffffffffff1673ffffffffffffffffffffffffffffffffffffffff1681526020019081526020016000206000815460010191905081905550610a2f85610a0b888887611274565b7c02000000000000000000000000000000000000000000000000000000001761129c565b600460008681526020019081526020016000208190555060007c0200000000000000000000000000000000000000000000000000000000841603610ab55760006001850190506000600460008381526020019081526020016000205403610ab3576000548114610ab2578360046000838152602001908152602001600020819055505b5b505b838573ffffffffffffffffffffffffffffffffffffffff168773ffffffffffffffffffffffffffffffffffffffff167fddf252ad1be2c89b69c2b068fc378daa952ba7f163c4a11628f55a4df523b3ef60405160405180910390a4610b1d86868660016112c7565b505050505050565b600c6020528060005260406000206000915090505481565b610b4782826112cd565b5050565b610b6683838360405180602001604052806000815250610e51565b505050565b6000610b7682611137565b9050919050565b6040517f08c379a0000000000000000000000000000000000000000000000000000000008152600401610baf90612111565b60405180910390fd5b60008073ffffffffffffffffffffffffffffffffffffffff168273ffffffffffffffffffffffffffffffffffffffff1603610c1f576040517f8f4eb60400000000000000000000000000000000000000000000000000000000815260040160405180910390fd5b67ffffffffffffffff600560008473ffffffffffffffffffffffffffffffffffffffff1673ffffffffffffffffffffffffffffffffffffffff16815260200190815260200160002054169050919050565b610c786112eb565b610c826000611369565b565b6000600860009054906101000a900473ffffffffffffffffffffffffffffffffffffffff16905090565b606060038054610cbd90612094565b80601f0160208091040260200160405190810160405280929190818152602001828054610ce990612094565b8015610d365780601f10610d0b57610100808354040283529160200191610d36565b820191906000526020600020905b815481529060010190602001808311610d1957829003601f168201915b5050505050905090565b60095481565b8060076000610d5361112a565b73ffffffffffffffffffffffffffffffffffffffff1673ffffffffffffffffffffffffffffffffffffffff16815260200190815260200160002060008473ffffffffffffffffffffffffffffffffffffffff1673ffffffffffffffffffffffffffffffffffffffff16815260200190815260200160002060006101000a81548160ff0219169083151502179055508173ffffffffffffffffffffffffffffffffffffffff16610e0061112a565b73ffffffffffffffffffffffffffffffffffffffff167f17307eab39ab6107e8899845ad3d59bd9653f200f220920489ca2b5937696c3183604051610e459190611b5f565b60405180910390a35050565b610e5c848484610803565b60008373ffffffffffffffffffffffffffffffffffffffff163b14610ebe57610e878484848461142f565b610ebd576040517fd1a57ed600000000000000000000000000000000000000000000000000000000815260040160405180910390fd5b5b50505050565b600b8054610ed190612094565b80601f0160208091040260200160405190810160405280929190818152602001828054610efd90612094565b8015610f4a5780601f10610f1f57610100808354040283529160200191610f4a565b820191906000526020600020905b815481529060010190602001808311610f2d57829003601f168201915b505050505081565b60606000610f5e61157f565b90506000815111610f7e5760405180602001604052806000815250610fac565b80610f8884611611565b600b604051602001610f9c93929190612205565b6040516020818303038152906040525b915050919050565b6000600760008473ffffffffffffffffffffffffffffffffffffffff1673ffffffffffffffffffffffffffffffffffffffff16815260200190815260200160002060008373ffffffffffffffffffffffffffffffffffffffff1673ffffffffffffffffffffffffffffffffffffffff16815260200190815260200160002060009054906101000a900460ff16905092915050565b6110506112eb565b600073ffffffffffffffffffffffffffffffffffffffff168173ffffffffffffffffffffffffffffffffffffffff16036110bf576040517f08c379a00000000000000000000000000000000000000000000000000000000081526004016110b6906122a8565b60405180910390fd5b6110c881611369565b50565b6000816110d6611132565b111580156110e5575060005482105b8015611123575060007c0100000000000000000000000000000000000000000000000000000000600460008581526020019081526020016000205416145b9050919050565b600033905090565b600090565b60008082905080611146611132565b116111cc576000548110156111cb5760006004600083815260200190815260200160002054905060007c01000000000000000000000000000000000000000000000000000000008216036111c9575b600081036111bf576004600083600190039350838152602001908152602001600020549050611195565b80925050506111fe565b505b5b6040517fdf2d9b4200000000000000000000000000000000000000000000000000000000815260040160405180910390fd5b919050565b60008060006006600085815260200190815260200160002090508092508254915050915091565b600073ffffffffffffffffffffffffffffffffffffffff8316925073ffffffffffffffffffffffffffffffffffffffff821691508382148383141790509392505050565b50505050565b60008060e883901c905060e861128b8686846116df565b62ffffff16901b9150509392505050565b600073ffffffffffffffffffffffffffffffffffffffff83169250814260a01b178317905092915050565b50505050565b6112e78282604051806020016040528060008152506116e8565b5050565b6112f3611785565b73ffffffffffffffffffffffffffffffffffffffff16611311610c84565b73ffffffffffffffffffffffffffffffffffffffff1614611367576040517f08c379a000000000000000000000000000000000000000000000000000000000815260040161135e90612314565b60405180910390fd5b565b6000600860009054906101000a900473ffffffffffffffffffffffffffffffffffffffff16905081600860006101000a81548173ffffffffffffffffffffffffffffffffffffffff021916908373ffffffffffffffffffffffffffffffffffffffff1602179055508173ffffffffffffffffffffffffffffffffffffffff168173ffffffffffffffffffffffffffffffffffffffff167f8be0079c531659141344cd1fd0a4f28419497f9722a3daafe3b4186f6b6457e060405160405180910390a35050565b60008373ffffffffffffffffffffffffffffffffffffffff1663150b7a0261145561112a565b8786866040518563ffffffff1660e01b81526004016114779493929190612389565b6020604051808303816000875af19250505080156114b357506040513d601f19601f820116820180604052508101906114b091906123ea565b60015b61152c573d80600081146114e3576040519150601f19603f3d011682016040523d82523d6000602084013e6114e8565b606091505b506000815103611524576040517fd1a57ed600000000000000000000000000000000000000000000000000000000815260040160405180910390fd5b805181602001fd5b63150b7a0260e01b7bffffffffffffffffffffffffffffffffffffffffffffffffffffffff1916817bffffffffffffffffffffffffffffffffffffffffffffffffffffffff191614915050949350505050565b6060600a805461158e90612094565b80601f01602080910402602001604051908101604052809291908181526020018280546115ba90612094565b80156116075780601f106115dc57610100808354040283529160200191611607565b820191906000526020600020905b8154815290600101906020018083116115ea57829003601f168201915b5050505050905090565b6060600060016116208461178d565b01905060008167ffffffffffffffff81111561163f5761163e611e77565b5b6040519080825280601f01601f1916602001820160405280156116715781602001600182028036833780820191505090505b509050600082602001820190505b6001156116d4578080600190039150507f3031323334353637383961626364656600000000000000000000000000000000600a86061a8153600a85816116c8576116c7612417565b5b0494506000850361167f575b819350505050919050565b60009392505050565b6116f283836118e0565b60008373ffffffffffffffffffffffffffffffffffffffff163b1461178057600080549050600083820390505b611732600086838060010194508661142f565b611768576040517fd1a57ed600000000000000000000000000000000000000000000000000000000815260040160405180910390fd5b81811061171f57816000541461177d57600080fd5b50505b505050565b600033905090565b600080600090507a184f03e93ff9f4daa797ed6e38ed64bf6a1f01000000000000000083106117eb577a184f03e93ff9f4daa797ed6e38ed64bf6a1f01000000000000000083816117e1576117e0612417565b5b0492506040810190505b6d04ee2d6d415b85acef81000000008310611828576d04ee2d6d415b85acef8100000000838161181e5761181d612417565b5b0492506020810190505b662386f26fc10000831061185757662386f26fc10000838161184d5761184c612417565b5b0492506010810190505b6305f5e1008310611880576305f5e100838161187657611875612417565b5b0492506008810190505b61271083106118a557612710838161189b5761189a612417565b5b0492506004810190505b606483106118c857606483816118be576118bd612417565b5b0492506002810190505b600a83106118d7576001810190505b80915050919050565b60008054905060008203611920576040517fb562e8dd00000000000000000000000000000000000000000000000000000000815260040160405180910390fd5b61192d600084838561126e565b600160406001901b178202600560008573ffffffffffffffffffffffffffffffffffffffff1673ffffffffffffffffffffffffffffffffffffffff168152602001908152602001600020600082825401925050819055506119a4836119956000866000611274565b61199e85611a9b565b1761129c565b6004600083815260200190815260200160002081905550600080838301905073ffffffffffffffffffffffffffffffffffffffff85169150828260007fddf252ad1be2c89b69c2b068fc378daa952ba7f163c4a11628f55a4df523b3ef600080a4600183015b818114611a4557808360007fddf252ad1be2c89b69c2b068fc378daa952ba7f163c4a11628f55a4df523b3ef600080a4600181019050611a0a565b5060008203611a80576040517f2e07630000000000000000000000000000000000000000000000000000000000815260040160405180910390fd5b806000819055505050611a9660008483856112c7565b505050565b60006001821460e11b9050919050565b6000604051905090565b600080fd5b600080fd5b60007fffffffff0000000000000000000000000000000000000000000000000000000082169050919050565b611af481611abf565b8114611aff57600080fd5b50565b600081359050611b1181611aeb565b92915050565b600060208284031215611b2d57611b2c611ab5565b5b6000611b3b84828501611b02565b91505092915050565b60008115159050919050565b611b5981611b44565b82525050565b6000602082019050611b746000830184611b50565b92915050565b600081519050919050565b600082825260208201905092915050565b60005b83811015611bb4578082015181840152602081019050611b99565b60008484015250505050565b6000601f19601f8301169050919050565b6000611bdc82611b7a565b611be68185611b85565b9350611bf6818560208601611b96565b611bff81611bc0565b840191505092915050565b60006020820190508181036000830152611c248184611bd1565b905092915050565b6000819050919050565b611c3f81611c2c565b8114611c4a57600080fd5b50565b600081359050611c5c81611c36565b92915050565b600060208284031215611c7857611c77611ab5565b5b6000611c8684828501611c4d565b91505092915050565b600073ffffffffffffffffffffffffffffffffffffffff82169050919050565b6000611cba82611c8f565b9050919050565b611cca81611caf565b82525050565b6000602082019050611ce56000830184611cc1565b92915050565b611cf481611caf565b8114611cff57600080fd5b50565b600081359050611d1181611ceb565b92915050565b60008060408385031215611d2e57611d2d611ab5565b5b6000611d3c85828601611d02565b9250506020611d4d85828601611c4d565b9150509250929050565b611d6081611c2c565b82525050565b6000602082019050611d7b6000830184611d57565b92915050565b600080600060608486031215611d9a57611d99611ab5565b5b6000611da886828701611d02565b9350506020611db986828701611d02565b9250506040611dca86828701611c4d565b9150509250925092565b600060208284031215611dea57611de9611ab5565b5b6000611df884828501611d02565b91505092915050565b611e0a81611b44565b8114611e1557600080fd5b50565b600081359050611e2781611e01565b92915050565b60008060408385031215611e4457611e43611ab5565b5b6000611e5285828601611d02565b9250506020611e6385828601611e18565b9150509250929050565b600080fd5b600080fd5b7f4e487b7100000000000000000000000000000000000000000000000000000000600052604160045260246000fd5b611eaf82611bc0565b810181811067ffffffffffffffff82111715611ece57611ecd611e77565b5b80604052505050565b6000611ee1611aab565b9050611eed8282611ea6565b919050565b600067ffffffffffffffff821115611f0d57611f0c611e77565b5b611f1682611bc0565b9050602081019050919050565b82818337600083830152505050565b6000611f45611f4084611ef2565b611ed7565b905082815260208101848484011115611f6157611f60611e72565b5b611f6c848285611f23565b509392505050565b600082601f830112611f8957611f88611e6d565b5b8135611f99848260208601611f32565b91505092915050565b60008060008060808587031215611fbc57611fbb611ab5565b5b6000611fca87828801611d02565b9450506020611fdb87828801611d02565b9350506040611fec87828801611c4d565b925050606085013567ffffffffffffffff81111561200d5761200c611aba565b5b61201987828801611f74565b91505092959194509250565b6000806040838503121561203c5761203b611ab5565b5b600061204a85828601611d02565b925050602061205b85828601611d02565b9150509250929050565b7f4e487b7100000000000000000000000000000000000000000000000000000000600052602260045260246000fd5b600060028204905060018216806120ac57607f821691505b6020821081036120bf576120be612065565b5b50919050565b7f5472616e73616374696f6e206e6f7420706f737369626c650000000000000000600082015250565b60006120fb601883611b85565b9150612106826120c5565b602082019050919050565b6000602082019050818103600083015261212a816120ee565b9050919050565b600081905092915050565b600061214782611b7a565b6121518185612131565b9350612161818560208601611b96565b80840191505092915050565b60008190508160005260206000209050919050565b6000815461218f81612094565b6121998186612131565b945060018216600081146121b457600181146121c9576121fc565b60ff19831686528115158202860193506121fc565b6121d28561216d565b60005b838110156121f4578154818901526001820191506020810190506121d5565b838801955050505b50505092915050565b6000612211828661213c565b915061221d828561213c565b91506122298284612182565b9150819050949350505050565b7f4f776e61626c653a206e6577206f776e657220697320746865207a65726f206160008201527f6464726573730000000000000000000000000000000000000000000000000000602082015250565b6000612292602683611b85565b915061229d82612236565b604082019050919050565b600060208201905081810360008301526122c181612285565b9050919050565b7f4f776e61626c653a2063616c6c6572206973206e6f7420746865206f776e6572600082015250565b60006122fe602083611b85565b9150612309826122c8565b602082019050919050565b6000602082019050818103600083015261232d816122f1565b9050919050565b600081519050919050565b600082825260208201905092915050565b600061235b82612334565b612365818561233f565b9350612375818560208601611b96565b61237e81611bc0565b840191505092915050565b600060808201905061239e6000830187611cc1565b6123ab6020830186611cc1565b6123b86040830185611d57565b81810360608301526123ca8184612350565b905095945050505050565b6000815190506123e481611aeb565b92915050565b600060208284031215612400576123ff611ab5565b5b600061240e848285016123d5565b91505092915050565b7f4e487b7100000000000000000000000000000000000000000000000000000000600052601260045260246000fdfea2646970667358221220840988b0d85833198dcf819b032598b167a80f751cec4ef22aeca725708a4af264736f6c63430008110033",
  "linkReferences": {},
  "deployedLinkReferences": {}
}